{
  "_format": "hh-sol-artifact-1",
  "contractName": "Ballot",
  "sourceName": "contracts/Ballot.sol",
  "abi": [
    {
      "inputs": [
        {
          "internalType": "bytes32[]",
          "name": "proposalNames",
          "type": "bytes32[]"
        }
      ],
      "stateMutability": "nonpayable",
      "type": "constructor"
    },
    {
      "anonymous": false,
      "inputs": [
        {
          "indexed": true,
          "internalType": "address",
          "name": "voter",
          "type": "address"
        }
      ],
      "name": "RightGranted",
      "type": "event"
    },
    {
      "anonymous": false,
      "inputs": [
        {
          "indexed": true,
          "internalType": "address",
          "name": "from",
          "type": "address"
        },
        {
          "indexed": true,
          "internalType": "address",
          "name": "to",
          "type": "address"
        }
      ],
      "name": "VoteDelegated",
      "type": "event"
    },
    {
      "anonymous": false,
      "inputs": [
        {
          "indexed": true,
          "internalType": "address",
          "name": "voter",
          "type": "address"
        },
        {
          "indexed": true,
          "internalType": "uint256",
          "name": "proposal",
          "type": "uint256"
        },
        {
          "indexed": false,
          "internalType": "uint256",
          "name": "weight",
          "type": "uint256"
        }
      ],
      "name": "Voted",
      "type": "event"
    },
    {
      "inputs": [],
      "name": "chairperson",
      "outputs": [
        {
          "internalType": "address",
          "name": "",
          "type": "address"
        }
      ],
      "stateMutability": "view",
      "type": "function"
    },
    {
      "inputs": [
        {
          "internalType": "address",
          "name": "to",
          "type": "address"
        }
      ],
      "name": "delegate",
      "outputs": [],
      "stateMutability": "nonpayable",
      "type": "function"
    },
    {
      "inputs": [
        {
          "internalType": "uint256",
          "name": "index",
          "type": "uint256"
        }
      ],
      "name": "getProposal",
      "outputs": [
        {
          "internalType": "bytes32",
          "name": "name",
          "type": "bytes32"
        },
        {
          "internalType": "uint256",
          "name": "voteCount",
          "type": "uint256"
        }
      ],
      "stateMutability": "view",
      "type": "function"
    },
    {
      "inputs": [],
      "name": "getProposalsCount",
      "outputs": [
        {
          "internalType": "uint256",
          "name": "",
          "type": "uint256"
        }
      ],
      "stateMutability": "view",
      "type": "function"
    },
    {
      "inputs": [
        {
          "internalType": "address",
          "name": "voter",
          "type": "address"
        }
      ],
      "name": "getVoterStatus",
      "outputs": [
        {
          "internalType": "uint256",
          "name": "weight",
          "type": "uint256"
        },
        {
          "internalType": "bool",
          "name": "voted",
          "type": "bool"
        },
        {
          "internalType": "address",
          "name": "delegatedTo",
          "type": "address"
        },
        {
          "internalType": "uint256",
          "name": "votedProposal",
          "type": "uint256"
        }
      ],
      "stateMutability": "view",
      "type": "function"
    },
    {
      "inputs": [
        {
          "internalType": "address",
          "name": "voter",
          "type": "address"
        }
      ],
      "name": "giveRightToVote",
      "outputs": [],
      "stateMutability": "nonpayable",
      "type": "function"
    },
    {
      "inputs": [
        {
          "internalType": "uint256",
          "name": "",
          "type": "uint256"
        }
      ],
      "name": "proposals",
      "outputs": [
        {
          "internalType": "bytes32",
          "name": "name",
          "type": "bytes32"
        },
        {
          "internalType": "uint256",
          "name": "voteCount",
          "type": "uint256"
        }
      ],
      "stateMutability": "view",
      "type": "function"
    },
    {
      "inputs": [
        {
          "internalType": "uint256",
          "name": "proposal",
          "type": "uint256"
        }
      ],
      "name": "vote",
      "outputs": [],
      "stateMutability": "nonpayable",
      "type": "function"
    },
    {
      "inputs": [
        {
          "internalType": "address",
          "name": "",
          "type": "address"
        }
      ],
      "name": "voters",
      "outputs": [
        {
          "internalType": "uint256",
          "name": "weight",
          "type": "uint256"
        },
        {
          "internalType": "bool",
          "name": "voted",
          "type": "bool"
        },
        {
          "internalType": "address",
          "name": "delegate",
          "type": "address"
        },
        {
          "internalType": "uint256",
          "name": "vote",
          "type": "uint256"
        }
      ],
      "stateMutability": "view",
      "type": "function"
    },
    {
      "inputs": [],
      "name": "winnerName",
      "outputs": [
        {
          "internalType": "bytes32",
          "name": "winnerName_",
          "type": "bytes32"
        }
      ],
      "stateMutability": "view",
      "type": "function"
    },
    {
      "inputs": [],
      "name": "winningProposal",
      "outputs": [
        {
          "internalType": "uint256",
          "name": "winningProposal_",
          "type": "uint256"
        }
      ],
      "stateMutability": "view",
      "type": "function"
    }
  ],
  "bytecode": "0x60a060405234801561001057600080fd5b50604051610cc9380380610cc983398101604081905261002f9161012c565b600081511161008e5760405162461bcd60e51b815260206004820152602160248201527f4174206c65617374206f6e652070726f706f73616c20697320726571756972656044820152601960fa1b606482015260840160405180910390fd5b3360808190526000908152602081905260408120600190555b815181101561010f57600160405180604001604052808484815181106100cf576100cf6101e9565b60209081029190910181015182526000918101829052835460018181018655948352918190208351600290930201918255919091015190820155016100a7565b50506101ff565b634e487b7160e01b600052604160045260246000fd5b6000602080838503121561013f57600080fd5b82516001600160401b038082111561015657600080fd5b818501915085601f83011261016a57600080fd5b81518181111561017c5761017c610116565b8060051b604051601f19603f830116810181811085821117156101a1576101a1610116565b6040529182528482019250838101850191888311156101bf57600080fd5b938501935b828510156101dd578451845293850193928501926101c4565b98975050505050505050565b634e487b7160e01b600052603260045260246000fd5b608051610aa96102206000396000818160f501526107410152610aa96000f3fe608060405234801561001057600080fd5b50600436106100a95760003560e01c806378e3ef201161007157806378e3ef201461015857806398e527d3146101ce5780639e7b8d61146101d6578063a3ec138d146101e9578063c7f758a81461022c578063e2ba53f01461023f57600080fd5b80630121b93f146100ae578063013cf08b146100c35780632e4176cf146100f05780635c19a95c1461012f578063609ff1bd14610142575b600080fd5b6100c16100bc3660046109ed565b610247565b005b6100d66100d13660046109ed565b6103c3565b604080519283526020830191909152015b60405180910390f35b6101177f000000000000000000000000000000000000000000000000000000000000000081565b6040516001600160a01b0390911681526020016100e7565b6100c161013d366004610a06565b6103f1565b61014a6106c3565b6040519081526020016100e7565b61019f610166366004610a06565b6001600160a01b03908116600090815260208190526040902080546001820154600290920154909360ff83169361010090930490921691565b6040516100e7949392919093845291151560208401526001600160a01b03166040830152606082015260800190565b60015461014a565b6100c16101e4366004610a06565b610736565b61019f6101f7366004610a06565b600060208190529081526040902080546001820154600290920154909160ff8116916101009091046001600160a01b03169084565b6100d661023a3660046109ed565b61092b565b61014a6109ba565b33600090815260208190526040902080546102a55760405162461bcd60e51b8152602060048201526019602482015278596f752068617665206e6f20726967687420746f20766f746560381b60448201526064015b60405180910390fd5b600181015460ff16156102ea5760405162461bcd60e51b815260206004820152600d60248201526c105b1c9958591e481d9bdd1959609a1b604482015260640161029c565b60015482106103345760405162461bcd60e51b8152602060048201526016602482015275092dcecc2d8d2c840e0e4dee0dee6c2d840d2dcc8caf60531b604482015260640161029c565b6001818101805460ff19168217905560028201839055815481549091908490811061036157610361610a36565b906000526020600020906002020160010160008282546103819190610a4c565b90915550508054604051908152829033907fea66f58e474bc09f580000e81f31b334d171db387d0c6098ba47bd897741679b9060200160405180910390a35050565b600181815481106103d357600080fd5b60009182526020909120600290910201805460019091015490915082565b336000908152602081905260409020805461044a5760405162461bcd60e51b8152602060048201526019602482015278596f752068617665206e6f20726967687420746f20766f746560381b604482015260640161029c565b600181015460ff16156104935760405162461bcd60e51b8152602060048201526011602482015270165bdd48185b1c9958591e481d9bdd1959607a1b604482015260640161029c565b336001600160a01b038316036104eb5760405162461bcd60e51b815260206004820152601d60248201527f53656c662d64656c65676174696f6e20697320646973616c6c6f776564000000604482015260640161029c565b6001600160a01b0382166105415760405162461bcd60e51b815260206004820152601b60248201527f5a65726f2061646472657373206973206e6f7420616c6c6f7765640000000000604482015260640161029c565b6001600160a01b03828116600090815260208190526040902060010154610100900416156105e3576001600160a01b039182166000908152602081905260409020600101546101009004909116903382036105de5760405162461bcd60e51b815260206004820152601860248201527f466f756e64206c6f6f7020696e2064656c65676174696f6e0000000000000000604482015260640161029c565b610541565b600181810180546001600160a81b0319166101006001600160a01b03861690810291909117831790915560009081526020819052604090209081015460ff161561066e578160000154600182600201548154811061064357610643610a36565b906000526020600020906002020160010160008282546106639190610a4c565b909155506106889050565b815481548290600090610682908490610a4c565b90915550505b6040516001600160a01b0384169033907fa0ff2fa6909fe4ddd94349fc9d8e2932f3dfe666216f3cc2aa3a72f5a03b655e90600090a3505050565b600080805b6001548110156107315781600182815481106106e6576106e6610a36565b9060005260206000209060020201600101541115610729576001818154811061071157610711610a36565b90600052602060002090600202016001015491508092505b6001016106c8565b505090565b336001600160a01b037f000000000000000000000000000000000000000000000000000000000000000016146107be5760405162461bcd60e51b815260206004820152602760248201527f4f6e6c79206368616972706572736f6e2063616e2063616c6c207468697320666044820152663ab731ba34b7b760c91b606482015260840161029c565b6001600160a01b0381166108145760405162461bcd60e51b815260206004820152601b60248201527f5a65726f2061646472657373206973206e6f7420616c6c6f7765640000000000604482015260640161029c565b6001600160a01b03811660009081526020819052604090206001015460ff16156108805760405162461bcd60e51b815260206004820152601760248201527f54686520766f74657220616c726561647920766f746564000000000000000000604482015260640161029c565b6001600160a01b038116600090815260208190526040902054156108e65760405162461bcd60e51b815260206004820152601c60248201527f566f74696e6720726967687420616c7265616479206772616e74656400000000604482015260640161029c565b6001600160a01b03811660008181526020819052604080822060019055517fdc102d43f15705b7b7c2a4c3e831a72c071b7a0cd0f7d39ba755d7ae2e5197ef9190a250565b600154600090819083106109815760405162461bcd60e51b815260206004820152601760248201527f50726f706f73616c20646f6573206e6f74206578697374000000000000000000604482015260640161029c565b60006001848154811061099657610996610a36565b90600052602060002090600202019050806000015481600101549250925050915091565b600060016109c66106c3565b815481106109d6576109d6610a36565b906000526020600020906002020160000154905090565b6000602082840312156109ff57600080fd5b5035919050565b600060208284031215610a1857600080fd5b81356001600160a01b0381168114610a2f57600080fd5b9392505050565b634e487b7160e01b600052603260045260246000fd5b80820180821115610a6d57634e487b7160e01b600052601160045260246000fd5b9291505056fea2646970667358221220aabe276b37ac94e6a0445df3e1f0e181ca85f5017c825de725c1f61dc63ee9a764736f6c63430008180033",
  "linkReferences": {},
  "deployedLinkReferences": {}
}